:020000040800F2
:1000000000300020090500085905000859050008BE
:1000100000000000000000000000000000000000E0
:10002000000000000000000000000000590500086A
:1000300000000000000000005905000859050008F4
:10004000590500080000000059050008590500087E
:100050005905000859050008590500085905000808
:10006000000000005905000859050008590500085E
:10007000590500085905000859050008000000004E
:1000800059050008000000000000000059050008A4
:10009000000000005905000859050008590500082E
:1000A0000000000059050008000000005905000884
:1000B00059050008000000000000000000000000DA
:1000C000002243088B4274D303098B425FD3030A97
:1000D0008B4244D3030B8B4228D3030C8B420DD3AA
:1000E000FF22090212BA030C8B4202D31212090238
:1000F00065D0030B8B4219D300E0090AC30B8B4276
:1001000001D3CB03C01A5241830B8B4201D38B0323
:10011000C01A5241430B8B4201D34B03C01A5241C8
:10012000030B8B4201D30B03C01A5241C30A8B420B
:1001300001D3CB02C01A5241830A8B4201D38B02F6
:10014000C01A5241430A8B4201D34B02C01A52419A
:10015000030A8B4201D30B02C01A5241CDD2C3090C
:100160008B4201D3CB01C01A524183098B4201D388
:100170008B01C01A524143098B4201D34B01C01A73
:10018000524103098B4201D30B01C01A5241C308EB
:100190008B4201D3CB00C01A524183088B4201D35A
:1001A0008B00C01A524143088B4201D34B00C01A46
:1001B0005241411A00D20146524110467047FFE7B2
:1001C00001B5002000F006F802BDC0460029F7D0B6
:1001D00076E770477047C0460448054B10B5834228
:1001E00003D0044B002B00D0984710BD0000002026
:1001F000000000200000000006480749091A8B1083
:10020000C90FC91810B5491003D0044B002B00D0FA
:10021000984710BD000000200000002000000000F2
:1002200010B5074C2378002B09D1FFF7D5FF054BFC
:10023000002B02D0044800E000BF0123237010BD52
:100240000000002000000000A4050008054B10B5C8
:10025000002B03D00449054800E000BFFFF7CCFFA6
:1002600010BDC0460000000004000020A4050008E6
:1002700080B582B000AF7860C0467B68013B7B6090
:100280007B68002BF9D1C046C046BD4602B080BD98
:1002900090B587B000AF3B1D0C4A13CA13C3118839
:1002A000198092789A700E237B6100F01FF800F09D
:1002B0003DF87A693B1D1100180000F009F9044B64
:1002C0001800FFF7D5FFC046F3E7C046BC0500089D
:1002D00040420F0080B500AF034B802212059A60A8
:1002E000C046BD4680BDC04600ED00E080B500AF11
:1002F0000C4B5A6B0B4B01210A435A63A023DB05BD
:100300001A68A023DB058021C9000A431A60A023D4
:10031000DB051A68A023DB0503490A401A60C046C2
:10032000BD4680BD00100240FFF7FFFF80B500AF63
:10033000384B5A6B374B01210A435A63A023DB0524
:100340001A68A023DB0534490A401A60A023DB05A4
:100350001A68A023DB05802109030A431A60A02341
:10036000DB051A68A023DB052C490A401A60A0238C
:10037000DB051A68A023DB05802189030A431A6084
:10038000A023DB055A6AA023DB05E0218A435A62D9
:10039000A023DB055A6AA023DB0510210A435A6219
:1003A000A023DB055A6AA023DB051D490A405A62D7
:1003B000A023DB055A6AA023DB05802149000A43FC
:1003C0005A62144B1A6C134B8021C9010A431A64F8
:1003D000C046104B1A6880235B001340F9D0C0461A
:1003E0000C4B1A6880235B011340F9D096239B01C4
:1003F0000C4A1900100000F019F80B4B0C221A607F
:10040000094B1A68084B01210A431A60C046BD46D1
:1004100080BDC04600100240FFFFFBFFFFFFEFFF63
:10042000FFF1FFFF001BB7000038014090B583B01B
:1004300000AF78603960064C3A687B68110018009C
:1004400000F008F80300E360C046BD4603B090BD6D
:100450000038014080B584B000AF786039603B68F7
:100460001B0119007868FFF72BFE0300FB603B6857
:100470001A017B6811001800FFF7A8FE0B001A0193
:100480003B681B0119001000FFF71AFE0300BB6058
:10049000FB681A01BB680F210B4013431800BD46CF
:1004A00004B080BD80B582B000AF0200FB1D1A70A1
:1004B000C046064BDB6980221340FAD0034BFA1D7D
:1004C00012789A62C046BD4602B080BD0038014035
:1004D00080B584B000AF786039600023FB6009E02C
:1004E0007A68FB68D3181B781800FFF7DBFFFB68FE
:1004F0000133FB60FA683B689A42F1D3C046C046BC
:10050000BD4604B080BD00000D488546FFF7E2FE01
:10051000002103E00B4B5B58435004310A480B4B5E
:1005200042189A42F6D30A4A02E0002313600432CA
:10053000084B9A42F9D300F011F8FFF7A9FEFEE745
:1005400000300020D405000800000020000000203A
:10055000000000201C000020FEE7000070B500260F
:100560000C4C0D4D641BA410A64209D1002600F0CE
:1005700019F80A4C0A4D641BA410A64205D170BD9F
:10058000B300EB5898470136EEE7B300EB589847B5
:100590000136F2E7CC050008CC050008D0050008BC
:1005A000CC050008F8B5C046F8BC08BC9E467047AC
:0C05B000F8B5C046F8BC08BC9E46704779
:1005BC0048656C6C6F20576F726C64210D0A0000DB
:0405CC004D020008D4
:0405D00021020008FC
:0400000508000509E1
:00000001FF
